:020000040800F2
:1000000008040020D900000805020008CD010008FE
:1000100000000000000000000000000000000000E0
:1000200000000000000000000000000009020008BD
:100030000000000000000000070200080B0200089A
:10004000EB000008EB000008EB000008EB000008E4
:10005000EB000008EB000008EB000008EB000008D4
:10006000EB000008EB000008EB000008EB000008C4
:10007000EB000008EB000008EB000008EB000008B4
:10008000EB000008EB000008EB000008EB000008A4
:10009000EB000008EB000008EB000008EB00000894
:1000A000EB000008EB000008EB000008EB00000884
:1000B000EB000008EB00000800000000EB00000867
:1000C0000448854600F02CF8004800476902000803
:1000D000C046C04608040020044880470448004742
:1000E000FEE7FEE7FEE7FEE7FEE7FEE70D0200089B
:1000F000C100000830B50B46014600202022012433
:1001000009E00D46D5409D4205D31D469540491B4B
:100110002546954040191546521E002DF1DC30BD94
:10012000064C0125064E05E0E36807CC2B430C3C4A
:1001300098471034B442F7D3FFF7C6FFAC0200086B
:10014000CC02000810B500BF1E480068FF21013135
:1001500008431C49086000BF00BF00BF1948006881
:10016000012189020840800A0028F6D000201549A4
:1001700089680F22120291430143124A916000BF25
:1001800000BF11468968C908C9000143916000BFDA
:1001900000BF00BF0B488068382108400028F8D114
:1001A00000BF084989680722120391430143054AA9
:1001B000916000BF044800F00BF8034800F01CF801
:1001C00010BD00000010024000127A0000BFFEE7E0
:1001D00070B504467D25ED0029462046FFF78AFFCD
:1001E000401E04494861002088610520086100BF65
:1001F00070BD000000E000E00149086070470000A9
:100200000000002070477047704770470A484068F8
:10021000400E40060121490340180849098989B266
:100220000843074909890904084303494860C8038A
:100230000449886070470000001002400032FF1F30
:100240004033FF1F00ED00E002E008C8121F08C1A4
:10025000002AFAD170477047002001E001C1121F47
:10026000002AFBD17047000008B501200E4909683B
:1002700001430D4A1160114609680140009100BF19
:1002800000BF000708494039C96B0143064A403A9C
:10029000D1631146C96B0140009100BF00BFFFF759
:1002A00051FF00BFFEE7000040100240CC020008F2
:1002B000000000200400000048020008D0020008EE
:1002C00004000020040400005802000800127A0014
:04000005080000C12E
:00000001FF
